{
  "contractName": "KittyContract",
  "abi": [
    {
      "inputs": [],
      "stateMutability": "nonpayable",
      "type": "constructor"
    },
    {
      "anonymous": false,
      "inputs": [
        {
          "indexed": true,
          "internalType": "address",
          "name": "owner",
          "type": "address"
        },
        {
          "indexed": true,
          "internalType": "address",
          "name": "approved",
          "type": "address"
        },
        {
          "indexed": true,
          "internalType": "uint256",
          "name": "tokenId",
          "type": "uint256"
        }
      ],
      "name": "Approval",
      "type": "event"
    },
    {
      "anonymous": false,
      "inputs": [
        {
          "indexed": true,
          "internalType": "address",
          "name": "owner",
          "type": "address"
        },
        {
          "indexed": true,
          "internalType": "address",
          "name": "operator",
          "type": "address"
        },
        {
          "indexed": false,
          "internalType": "bool",
          "name": "approved",
          "type": "bool"
        }
      ],
      "name": "ApprovalForAll",
      "type": "event"
    },
    {
      "anonymous": false,
      "inputs": [
        {
          "indexed": false,
          "internalType": "address",
          "name": "owner",
          "type": "address"
        },
        {
          "indexed": false,
          "internalType": "uint256",
          "name": "kittenId",
          "type": "uint256"
        },
        {
          "indexed": false,
          "internalType": "uint256",
          "name": "genes",
          "type": "uint256"
        },
        {
          "indexed": false,
          "internalType": "uint32",
          "name": "mumId",
          "type": "uint32"
        },
        {
          "indexed": false,
          "internalType": "uint32",
          "name": "dadId",
          "type": "uint32"
        }
      ],
      "name": "Birth",
      "type": "event"
    },
    {
      "anonymous": false,
      "inputs": [
        {
          "indexed": true,
          "internalType": "address",
          "name": "from",
          "type": "address"
        },
        {
          "indexed": true,
          "internalType": "address",
          "name": "to",
          "type": "address"
        },
        {
          "indexed": true,
          "internalType": "uint256",
          "name": "tokenId",
          "type": "uint256"
        }
      ],
      "name": "Transfer",
      "type": "event"
    },
    {
      "inputs": [],
      "name": "CREATION_LIMIT_FOR_GEN",
      "outputs": [
        {
          "internalType": "uint256",
          "name": "",
          "type": "uint256"
        }
      ],
      "stateMutability": "view",
      "type": "function"
    },
    {
      "inputs": [],
      "name": "genCntr",
      "outputs": [
        {
          "internalType": "uint256",
          "name": "",
          "type": "uint256"
        }
      ],
      "stateMutability": "view",
      "type": "function"
    },
    {
      "inputs": [
        {
          "internalType": "uint256",
          "name": "",
          "type": "uint256"
        }
      ],
      "name": "kittyIndexToApproved",
      "outputs": [
        {
          "internalType": "address",
          "name": "",
          "type": "address"
        }
      ],
      "stateMutability": "view",
      "type": "function"
    },
    {
      "inputs": [],
      "name": "kittyName",
      "outputs": [
        {
          "internalType": "string",
          "name": "",
          "type": "string"
        }
      ],
      "stateMutability": "view",
      "type": "function"
    },
    {
      "inputs": [],
      "name": "kittySymbol",
      "outputs": [
        {
          "internalType": "string",
          "name": "",
          "type": "string"
        }
      ],
      "stateMutability": "view",
      "type": "function"
    },
    {
      "inputs": [],
      "name": "owner",
      "outputs": [
        {
          "internalType": "address",
          "name": "",
          "type": "address"
        }
      ],
      "stateMutability": "view",
      "type": "function"
    },
    {
      "inputs": [
        {
          "internalType": "address",
          "name": "_owner",
          "type": "address"
        }
      ],
      "name": "getAllCatsFor",
      "outputs": [
        {
          "internalType": "uint256[]",
          "name": "cats",
          "type": "uint256[]"
        }
      ],
      "stateMutability": "view",
      "type": "function"
    },
    {
      "inputs": [
        {
          "internalType": "uint256",
          "name": "_tokenId",
          "type": "uint256"
        }
      ],
      "name": "getKitty",
      "outputs": [
        {
          "internalType": "uint256",
          "name": "genes",
          "type": "uint256"
        },
        {
          "internalType": "uint256",
          "name": "birthTime",
          "type": "uint256"
        },
        {
          "internalType": "uint256",
          "name": "mumId",
          "type": "uint256"
        },
        {
          "internalType": "uint256",
          "name": "dadId",
          "type": "uint256"
        },
        {
          "internalType": "uint256",
          "name": "generation",
          "type": "uint256"
        },
        {
          "internalType": "address",
          "name": "owner",
          "type": "address"
        }
      ],
      "stateMutability": "view",
      "type": "function"
    },
    {
      "inputs": [
        {
          "internalType": "uint256",
          "name": "genes",
          "type": "uint256"
        }
      ],
      "name": "createNewGen0",
      "outputs": [
        {
          "internalType": "uint256",
          "name": "",
          "type": "uint256"
        }
      ],
      "stateMutability": "nonpayable",
      "type": "function"
    },
    {
      "inputs": [
        {
          "internalType": "address",
          "name": "owner",
          "type": "address"
        }
      ],
      "name": "balanceOf",
      "outputs": [
        {
          "internalType": "uint256",
          "name": "balance",
          "type": "uint256"
        }
      ],
      "stateMutability": "view",
      "type": "function"
    },
    {
      "inputs": [],
      "name": "totalSupply",
      "outputs": [
        {
          "internalType": "uint256",
          "name": "total",
          "type": "uint256"
        }
      ],
      "stateMutability": "view",
      "type": "function"
    },
    {
      "inputs": [],
      "name": "name",
      "outputs": [
        {
          "internalType": "string",
          "name": "tokenName",
          "type": "string"
        }
      ],
      "stateMutability": "view",
      "type": "function"
    },
    {
      "inputs": [],
      "name": "symbol",
      "outputs": [
        {
          "internalType": "string",
          "name": "tokenSymbol",
          "type": "string"
        }
      ],
      "stateMutability": "view",
      "type": "function"
    },
    {
      "inputs": [
        {
          "internalType": "uint256",
          "name": "tokenId",
          "type": "uint256"
        }
      ],
      "name": "ownerOf",
      "outputs": [
        {
          "internalType": "address",
          "name": "owner",
          "type": "address"
        }
      ],
      "stateMutability": "view",
      "type": "function"
    },
    {
      "inputs": [
        {
          "internalType": "address",
          "name": "to",
          "type": "address"
        },
        {
          "internalType": "uint256",
          "name": "tokenId",
          "type": "uint256"
        }
      ],
      "name": "transfer",
      "outputs": [],
      "stateMutability": "nonpayable",
      "type": "function"
    },
    {
      "inputs": [
        {
          "internalType": "address",
          "name": "_approved",
          "type": "address"
        },
        {
          "internalType": "uint256",
          "name": "_tokenId",
          "type": "uint256"
        }
      ],
      "name": "approve",
      "outputs": [],
      "stateMutability": "nonpayable",
      "type": "function"
    },
    {
      "inputs": [
        {
          "internalType": "address",
          "name": "_operator",
          "type": "address"
        },
        {
          "internalType": "bool",
          "name": "_approved",
          "type": "bool"
        }
      ],
      "name": "setApprovalForAll",
      "outputs": [],
      "stateMutability": "nonpayable",
      "type": "function"
    },
    {
      "inputs": [
        {
          "internalType": "uint256",
          "name": "_tokenId",
          "type": "uint256"
        }
      ],
      "name": "getApproved",
      "outputs": [
        {
          "internalType": "address",
          "name": "",
          "type": "address"
        }
      ],
      "stateMutability": "view",
      "type": "function"
    },
    {
      "inputs": [
        {
          "internalType": "address",
          "name": "_owner",
          "type": "address"
        },
        {
          "internalType": "address",
          "name": "_operator",
          "type": "address"
        }
      ],
      "name": "isApprovedForAll",
      "outputs": [
        {
          "internalType": "bool",
          "name": "",
          "type": "bool"
        }
      ],
      "stateMutability": "view",
      "type": "function"
    },
    {
      "inputs": [
        {
          "internalType": "address",
          "name": "_from",
          "type": "address"
        },
        {
          "internalType": "address",
          "name": "_to",
          "type": "address"
        },
        {
          "internalType": "uint256",
          "name": "_tokenId",
          "type": "uint256"
        },
        {
          "internalType": "bytes",
          "name": "data",
          "type": "bytes"
        }
      ],
      "name": "safeTransferFrom",
      "outputs": [],
      "stateMutability": "nonpayable",
      "type": "function"
    },
    {
      "inputs": [
        {
          "internalType": "address",
          "name": "_from",
          "type": "address"
        },
        {
          "internalType": "address",
          "name": "_to",
          "type": "address"
        },
        {
          "internalType": "uint256",
          "name": "_tokenId",
          "type": "uint256"
        }
      ],
      "name": "safeTransferFrom",
      "outputs": [],
      "stateMutability": "nonpayable",
      "type": "function"
    },
    {
      "inputs": [
        {
          "internalType": "address",
          "name": "_from",
          "type": "address"
        },
        {
          "internalType": "address",
          "name": "_to",
          "type": "address"
        },
        {
          "internalType": "uint256",
          "name": "_tokenId",
          "type": "uint256"
        }
      ],
      "name": "transferFrom",
      "outputs": [],
      "stateMutability": "nonpayable",
      "type": "function"
    }
  ],
  "bytecode": "0x608060405234801561001057600080fd5b5033600160006101000a81548173ffffffffffffffffffffffffffffffffffffffff021916908373ffffffffffffffffffffffffffffffffffffffff160217905550612447806100616000396000f3fe608060405234801561001057600080fd5b50600436106101425760003560e01c8063812d41a1116100b8578063a9059cbb1161007c578063a9059cbb1461038b578063b88d4fde146103a7578063bc762fff146103c3578063d81651d6146103e1578063e985e9c5146103ff578063e98b7f4d1461042f57610142565b8063812d41a1146102e55780638da5cb5b1461030357806395d89b41146103215780639aa170271461033f578063a22cb4651461036f57610142565b806323b872dd1161010a57806323b872dd146101ed57806342842e0e14610209578063481af3d3146102255780635a64aafa146102555780636352211e1461028557806370a08231146102b557610142565b806306fdde0314610147578063081812fc14610165578063095ea7b31461019557806312f9b861146101b157806318160ddd146101cf575b600080fd5b61014f610464565b60405161015c91906118ce565b60405180910390f35b61017f600480360381019061017a9190611930565b6104a1565b60405161018c919061199e565b60405180910390f35b6101af60048036038101906101aa91906119e5565b610525565b005b6101b9610698565b6040516101c691906118ce565b60405180910390f35b6101d76106d1565b6040516101e49190611a34565b60405180910390f35b61020760048036038101906102029190611a4f565b6106de565b005b610223600480360381019061021e9190611a4f565b6108dd565b005b61023f600480360381019061023a9190611930565b6108e2565b60405161024c919061199e565b60405180910390f35b61026f600480360381019061026a9190611aa2565b610915565b60405161027c9190611b8d565b60405180910390f35b61029f600480360381019061029a9190611930565b610a68565b6040516102ac919061199e565b60405180910390f35b6102cf60048036038101906102ca9190611aa2565b610aa5565b6040516102dc9190611a34565b60405180910390f35b6102ed610aee565b6040516102fa91906118ce565b60405180910390f35b61030b610b27565b604051610318919061199e565b60405180910390f35b610329610b4d565b60405161033691906118ce565b60405180910390f35b61035960048036038101906103549190611930565b610b8a565b6040516103669190611a34565b60405180910390f35b61038960048036038101906103849190611be7565b610c5e565b005b6103a560048036038101906103a091906119e5565b610dca565b005b6103c160048036038101906103bc9190611c8c565b610f59565b005b6103cb6111a5565b6040516103d89190611a34565b60405180910390f35b6103e96111aa565b6040516103f69190611a34565b60405180910390f35b61041960048036038101906104149190611d14565b6111b0565b6040516104269190611d63565b60405180910390f35b61044960048036038101906104449190611930565b611244565b60405161045b96959493929190611d7e565b60405180910390f35b60606040518060400160405280600b81526020017f4b69747479455243373231000000000000000000000000000000000000000000815250905090565b600060068054905082106104ea576040517f08c379a00000000000000000000000000000000000000000000000000000000081526004016104e190611e2b565b60405180910390fd5b6004600083815260200190815260200160002060009054906101000a900473ffffffffffffffffffffffffffffffffffffffff169050919050565b3373ffffffffffffffffffffffffffffffffffffffff166003600083815260200190815260200160002060009054906101000a900473ffffffffffffffffffffffffffffffffffffffff1673ffffffffffffffffffffffffffffffffffffffff1614806105f057503373ffffffffffffffffffffffffffffffffffffffff166004600083815260200190815260200160002060009054906101000a900473ffffffffffffffffffffffffffffffffffffffff1673ffffffffffffffffffffffffffffffffffffffff16145b61062f576040517f08c379a000000000000000000000000000000000000000000000000000000000815260040161062690611ebd565b60405180910390fd5b6106398282611332565b808273ffffffffffffffffffffffffffffffffffffffff163373ffffffffffffffffffffffffffffffffffffffff167f8c5be1e5ebec7d5bd14f71427d1e84f3dd0314c0f7b2291e5b200ac8c7c3b92560405160405180910390a45050565b6040518060400160405280600b81526020017f4b6974747945524337323100000000000000000000000000000000000000000081525081565b6000600680549050905090565b8273ffffffffffffffffffffffffffffffffffffffff163373ffffffffffffffffffffffffffffffffffffffff16148061077657506004600082815260200190815260200160002060009054906101000a900473ffffffffffffffffffffffffffffffffffffffff1673ffffffffffffffffffffffffffffffffffffffff163373ffffffffffffffffffffffffffffffffffffffff16145b8061080e5750600560003373ffffffffffffffffffffffffffffffffffffffff1673ffffffffffffffffffffffffffffffffffffffff16815260200190815260200160002060008473ffffffffffffffffffffffffffffffffffffffff1673ffffffffffffffffffffffffffffffffffffffff16815260200190815260200160002060009054906101000a900460ff16151560011515145b61081757600080fd5b6003600082815260200190815260200160002060009054906101000a900473ffffffffffffffffffffffffffffffffffffffff1673ffffffffffffffffffffffffffffffffffffffff168373ffffffffffffffffffffffffffffffffffffffff161461088257600080fd5b600073ffffffffffffffffffffffffffffffffffffffff168273ffffffffffffffffffffffffffffffffffffffff1614156108bc57600080fd5b60068054905081106108cd57600080fd5b6108d8838383611388565b505050565b505050565b60046020528060005260406000206000915054906101000a900473ffffffffffffffffffffffffffffffffffffffff1681565b60606000600260008473ffffffffffffffffffffffffffffffffffffffff1673ffffffffffffffffffffffffffffffffffffffff1681526020019081526020016000205467ffffffffffffffff81111561097257610971611edd565b5b6040519080825280602002602001820160405280156109a05781602001602082028036833780820191505090505b5090506000805b600680549050811015610a5d578473ffffffffffffffffffffffffffffffffffffffff166003600083815260200190815260200160002060009054906101000a900473ffffffffffffffffffffffffffffffffffffffff1673ffffffffffffffffffffffffffffffffffffffff161415610a4a5780838381518110610a2f57610a2e611f0c565b5b6020026020010181815250508180610a4690611f6a565b9250505b8080610a5590611f6a565b9150506109a7565b508192505050919050565b60006003600083815260200190815260200160002060009054906101000a900473ffffffffffffffffffffffffffffffffffffffff169050919050565b6000600260008373ffffffffffffffffffffffffffffffffffffffff1673ffffffffffffffffffffffffffffffffffffffff168152602001908152602001600020549050919050565b6040518060400160405280600681526020017f4b5454373231000000000000000000000000000000000000000000000000000081525081565b600160009054906101000a900473ffffffffffffffffffffffffffffffffffffffff1681565b60606040518060400160405280600681526020017f4b54543732310000000000000000000000000000000000000000000000000000815250905090565b6000600160009054906101000a900473ffffffffffffffffffffffffffffffffffffffff1673ffffffffffffffffffffffffffffffffffffffff163373ffffffffffffffffffffffffffffffffffffffff1614610be657600080fd5b600a60005410610c2b576040517f08c379a0000000000000000000000000000000000000000000000000000000008152600401610c2290611fff565b60405180910390fd5b600080815480929190610c3d90611f6a565b91905055506000610c538360008060003361154f565b905080915050919050565b3373ffffffffffffffffffffffffffffffffffffffff168273ffffffffffffffffffffffffffffffffffffffff161415610ccd576040517f08c379a0000000000000000000000000000000000000000000000000000000008152600401610cc490612091565b60405180910390fd5b80600560003373ffffffffffffffffffffffffffffffffffffffff1673ffffffffffffffffffffffffffffffffffffffff16815260200190815260200160002060008473ffffffffffffffffffffffffffffffffffffffff1673ffffffffffffffffffffffffffffffffffffffff16815260200190815260200160002060006101000a81548160ff0219169083151502179055508173ffffffffffffffffffffffffffffffffffffffff163373ffffffffffffffffffffffffffffffffffffffff167f17307eab39ab6107e8899845ad3d59bd9653f200f220920489ca2b5937696c3183604051610dbe9190611d63565b60405180910390a35050565b600073ffffffffffffffffffffffffffffffffffffffff168273ffffffffffffffffffffffffffffffffffffffff161415610e3a576040517f08c379a0000000000000000000000000000000000000000000000000000000008152600401610e31906120fd565b60405180910390fd5b3073ffffffffffffffffffffffffffffffffffffffff168273ffffffffffffffffffffffffffffffffffffffff161415610ea9576040517f08c379a0000000000000000000000000000000000000000000000000000000008152600401610ea09061218f565b60405180910390fd5b3373ffffffffffffffffffffffffffffffffffffffff166003600083815260200190815260200160002060009054906101000a900473ffffffffffffffffffffffffffffffffffffffff1673ffffffffffffffffffffffffffffffffffffffff1614610f4a576040517f08c379a0000000000000000000000000000000000000000000000000000000008152600401610f41906121fb565b60405180910390fd5b610f55338383611388565b5050565b8484848273ffffffffffffffffffffffffffffffffffffffff163373ffffffffffffffffffffffffffffffffffffffff161480610ff457506004600082815260200190815260200160002060009054906101000a900473ffffffffffffffffffffffffffffffffffffffff1673ffffffffffffffffffffffffffffffffffffffff163373ffffffffffffffffffffffffffffffffffffffff16145b8061108c5750600560003373ffffffffffffffffffffffffffffffffffffffff1673ffffffffffffffffffffffffffffffffffffffff16815260200190815260200160002060008473ffffffffffffffffffffffffffffffffffffffff1673ffffffffffffffffffffffffffffffffffffffff16815260200190815260200160002060009054906101000a900460ff16151560011515145b61109557600080fd5b6003600082815260200190815260200160002060009054906101000a900473ffffffffffffffffffffffffffffffffffffffff1673ffffffffffffffffffffffffffffffffffffffff168373ffffffffffffffffffffffffffffffffffffffff161461110057600080fd5b600073ffffffffffffffffffffffffffffffffffffffff168273ffffffffffffffffffffffffffffffffffffffff16141561113a57600080fd5b600680549050811061114b57600080fd5b61119b88888888888080601f016020809104026020016040519081016040528093929190818152602001838380828437600081840152601f19601f820116905080830192505050505050506116dc565b5050505050505050565b600a81565b60005481565b6000600560008473ffffffffffffffffffffffffffffffffffffffff1673ffffffffffffffffffffffffffffffffffffffff16815260200190815260200160002060008373ffffffffffffffffffffffffffffffffffffffff1673ffffffffffffffffffffffffffffffffffffffff16815260200190815260200160002060009054906101000a900460ff16905092915050565b60008060008060008060006006888154811061126357611262611f0c565b5b90600052602060002090600202019050806000015496508060010160009054906101000a900467ffffffffffffffff1667ffffffffffffffff1695508060010160089054906101000a900463ffffffff1663ffffffff16945080600101600c9054906101000a900463ffffffff1663ffffffff1693508060010160109054906101000a900461ffff1661ffff1692506003600089815260200190815260200160002060009054906101000a900473ffffffffffffffffffffffffffffffffffffffff1691505091939550919395565b816004600083815260200190815260200160002060006101000a81548173ffffffffffffffffffffffffffffffffffffffff021916908373ffffffffffffffffffffffffffffffffffffffff1602179055505050565b816003600083815260200190815260200160002060006101000a81548173ffffffffffffffffffffffffffffffffffffffff021916908373ffffffffffffffffffffffffffffffffffffffff160217905550600073ffffffffffffffffffffffffffffffffffffffff168373ffffffffffffffffffffffffffffffffffffffff161461149a57600260008473ffffffffffffffffffffffffffffffffffffffff1673ffffffffffffffffffffffffffffffffffffffff168152602001908152602001600020600081548092919061145e9061221b565b91905055506004600082815260200190815260200160002060006101000a81549073ffffffffffffffffffffffffffffffffffffffff02191690555b600260008373ffffffffffffffffffffffffffffffffffffffff1673ffffffffffffffffffffffffffffffffffffffff16815260200190815260200160002060008154809291906114ea90611f6a565b9190505550808273ffffffffffffffffffffffffffffffffffffffff168473ffffffffffffffffffffffffffffffffffffffff167fddf252ad1be2c89b69c2b068fc378daa952ba7f163c4a11628f55a4df523b3ef60405160405180910390a4505050565b6000806040518060a001604052808881526020014267ffffffffffffffff1681526020018763ffffffff1681526020018663ffffffff1681526020018561ffff16815250905060068190806001815401808255809150506001900390600052602060002090600202016000909190919091506000820151816000015560208201518160010160006101000a81548167ffffffffffffffff021916908367ffffffffffffffff16021790555060408201518160010160086101000a81548163ffffffff021916908363ffffffff160217905550606082015181600101600c6101000a81548163ffffffff021916908363ffffffff16021790555060808201518160010160106101000a81548161ffff021916908361ffff1602179055505050600060016006805490506116819190612245565b905061168f60008583611388565b7fce9a7bfb6cd6f2bc1fd24f63e9c089acf32aa29cde8340179d8728c4a5c8b90784828a8a8a6040516116c6959493929190612298565b60405180910390a1809250505095945050505050565b6116e7848484611388565b6116f3848484846116fa565b5050505050565b60006117058461181c565b151560001515141561171a5760019050611814565b60008473ffffffffffffffffffffffffffffffffffffffff1663150b7a02338887876040518563ffffffff1660e01b815260040161175b9493929190612340565b602060405180830381600087803b15801561177557600080fd5b505af1158015611789573d6000803e3d6000fd5b505050506040513d601f19601f820116820180604052508101906117ad91906123e4565b9050807bffffffffffffffffffffffffffffffffffffffffffffffffffffffff19167f150b7a023d4804d13e8c85fb27262cb750cf6ba9f9dd3bb30d90f482ceeb4b1f7bffffffffffffffffffffffffffffffffffffffffffffffffffffffff1916149150505b949350505050565b600080823b905060008163ffffffff1611915050919050565b600081519050919050565b600082825260208201905092915050565b60005b8381101561186f578082015181840152602081019050611854565b8381111561187e576000848401525b50505050565b6000601f19601f8301169050919050565b60006118a082611835565b6118aa8185611840565b93506118ba818560208601611851565b6118c381611884565b840191505092915050565b600060208201905081810360008301526118e88184611895565b905092915050565b600080fd5b600080fd5b6000819050919050565b61190d816118fa565b811461191857600080fd5b50565b60008135905061192a81611904565b92915050565b600060208284031215611946576119456118f0565b5b60006119548482850161191b565b91505092915050565b600073ffffffffffffffffffffffffffffffffffffffff82169050919050565b60006119888261195d565b9050919050565b6119988161197d565b82525050565b60006020820190506119b3600083018461198f565b92915050565b6119c28161197d565b81146119cd57600080fd5b50565b6000813590506119df816119b9565b92915050565b600080604083850312156119fc576119fb6118f0565b5b6000611a0a858286016119d0565b9250506020611a1b8582860161191b565b9150509250929050565b611a2e816118fa565b82525050565b6000602082019050611a496000830184611a25565b92915050565b600080600060608486031215611a6857611a676118f0565b5b6000611a76868287016119d0565b9350506020611a87868287016119d0565b9250506040611a988682870161191b565b9150509250925092565b600060208284031215611ab857611ab76118f0565b5b6000611ac6848285016119d0565b91505092915050565b600081519050919050565b600082825260208201905092915050565b6000819050602082019050919050565b611b04816118fa565b82525050565b6000611b168383611afb565b60208301905092915050565b6000602082019050919050565b6000611b3a82611acf565b611b448185611ada565b9350611b4f83611aeb565b8060005b83811015611b80578151611b678882611b0a565b9750611b7283611b22565b925050600181019050611b53565b5085935050505092915050565b60006020820190508181036000830152611ba78184611b2f565b905092915050565b60008115159050919050565b611bc481611baf565b8114611bcf57600080fd5b50565b600081359050611be181611bbb565b92915050565b60008060408385031215611bfe57611bfd6118f0565b5b6000611c0c858286016119d0565b9250506020611c1d85828601611bd2565b9150509250929050565b600080fd5b600080fd5b600080fd5b60008083601f840112611c4c57611c4b611c27565b5b8235905067ffffffffffffffff811115611c6957611c68611c2c565b5b602083019150836001820283011115611c8557611c84611c31565b5b9250929050565b600080600080600060808688031215611ca857611ca76118f0565b5b6000611cb6888289016119d0565b9550506020611cc7888289016119d0565b9450506040611cd88882890161191b565b935050606086013567ffffffffffffffff811115611cf957611cf86118f5565b5b611d0588828901611c36565b92509250509295509295909350565b60008060408385031215611d2b57611d2a6118f0565b5b6000611d39858286016119d0565b9250506020611d4a858286016119d0565b9150509250929050565b611d5d81611baf565b82525050565b6000602082019050611d786000830184611d54565b92915050565b600060c082019050611d936000830189611a25565b611da06020830188611a25565b611dad6040830187611a25565b611dba6060830186611a25565b611dc76080830185611a25565b611dd460a083018461198f565b979650505050505050565b7f546f6b656e206d75737420657869737400000000000000000000000000000000600082015250565b6000611e15601083611840565b9150611e2082611ddf565b602082019050919050565b60006020820190508181036000830152611e4481611e08565b9050919050565b7f4b69747479206d75737420626520617070726f766564206f72206f776e65642060008201527f627920612073656e646572000000000000000000000000000000000000000000602082015250565b6000611ea7602b83611840565b9150611eb282611e4b565b604082019050919050565b60006020820190508181036000830152611ed681611e9a565b9050919050565b7f4e487b7100000000000000000000000000000000000000000000000000000000600052604160045260246000fd5b7f4e487b7100000000000000000000000000000000000000000000000000000000600052603260045260246000fd5b7f4e487b7100000000000000000000000000000000000000000000000000000000600052601160045260246000fd5b6000611f75826118fa565b91507fffffffffffffffffffffffffffffffffffffffffffffffffffffffffffffffff821415611fa857611fa7611f3b565b5b600182019050919050565b7f4c696d6974206163686965766564000000000000000000000000000000000000600082015250565b6000611fe9600e83611840565b9150611ff482611fb3565b602082019050919050565b6000602082019050818103600083015261201881611fdc565b9050919050565b7f4f70657261746f722061646472657373206d757374206265206469666665726560008201527f6e74207468616e2073656e646572277320616464726573730000000000000000602082015250565b600061207b603883611840565b91506120868261201f565b604082019050919050565b600060208201905081810360008301526120aa8161206e565b9050919050565b7f526563697069656e742063616e6e6f7420686176652061646472657373203000600082015250565b60006120e7601f83611840565b91506120f2826120b1565b602082019050919050565b60006020820190508181036000830152612116816120da565b9050919050565b7f526563697069656e742063616e6e6f74206861766520636f6e7472616374206160008201527f6464726573730000000000000000000000000000000000000000000000000000602082015250565b6000612179602683611840565b91506121848261211d565b604082019050919050565b600060208201905081810360008301526121a88161216c565b9050919050565b7f4b69747479206d757374206265206f776e656420627920612073656e64657200600082015250565b60006121e5601f83611840565b91506121f0826121af565b602082019050919050565b60006020820190508181036000830152612214816121d8565b9050919050565b6000612226826118fa565b9150600082141561223a57612239611f3b565b5b600182039050919050565b6000612250826118fa565b915061225b836118fa565b92508282101561226e5761226d611f3b565b5b828203905092915050565b600063ffffffff82169050919050565b61229281612279565b82525050565b600060a0820190506122ad600083018861198f565b6122ba6020830187611a25565b6122c76040830186611a25565b6122d46060830185612289565b6122e16080830184612289565b9695505050505050565b600081519050919050565b600082825260208201905092915050565b6000612312826122eb565b61231c81856122f6565b935061232c818560208601611851565b61233581611884565b840191505092915050565b6000608082019050612355600083018761198f565b612362602083018661198f565b61236f6040830185611a25565b81810360608301526123818184612307565b905095945050505050565b60007fffffffff0000000000000000000000000000000000000000000000000000000082169050919050565b6123c18161238c565b81146123cc57600080fd5b50565b6000815190506123de816123b8565b92915050565b6000602082840312156123fa576123f96118f0565b5b6000612408848285016123cf565b9150509291505056fea26469706673582212204907a37a4bf8b12378cbaed2e4a8fd6fd737e4ab07eeb685c86da219c03c1cde64736f6c63430008090033",
  "immutableReferences": {},
  "source": "pragma solidity ^0.8.0;\n\nimport \"./IERC721.sol\";\nimport \"./IERC721Receiver.sol\";\n//import \"./Contract.sol\";\n\ncontract KittyContract is IERC721 {\n\n    string public constant kittyName = \"KittyERC721\";\n    string public constant kittySymbol = \"KTT721\";\n    uint256 public constant CREATION_LIMIT_FOR_GEN = 10;\n    uint256 public genCntr;\n\n    bytes4 internal constant ERC721CONF = bytes4(keccak256(\"onERC721Received(address,address,uint256,bytes)\"));\n\n    address public owner;\n\n    constructor() {\n        owner = msg.sender;\n    }\n\n    modifier onlyOwner{\n        require(msg.sender == owner);\n        _;\n    }\n    modifier tranferableFrom( address _from, address _to, uint256 _tokenId){\n        require((msg.sender == _from) || \n                (msg.sender == kittyIndexToApproved[_tokenId]) || \n                (true == _operatorApprovals[msg.sender][_from]));\n        require(_from == kittyIdToOwner[_tokenId]);\n        require(_to != address(0));\n        require(_tokenId < kitties.length);\n        _;\n    }\n\n    struct Kitty{\n        uint256 genes;\n        uint64 birthTime;\n        uint32 mumId;\n        uint32 dadId;\n        uint16 generation;\n    }\n\n    event Birth(\n        address owner,\n        uint256 kittenId,\n        uint256 genes,\n        uint32 mumId,\n        uint32 dadId\n    );\n\n    mapping(address => uint256) ownershipCounter;\n    mapping(uint256 => address) kittyIdToOwner;\n\n    mapping(uint256 => address) public kittyIndexToApproved;\n    mapping(address => mapping(address => bool)) private _operatorApprovals;\n\n    Kitty[] kitties;\n\n    function getAllCatsFor(address _owner) external view returns (uint[] memory cats){ // seems to be better solution because this function is only view function so it is called for free (it does not matter the operation amount)\n        uint[] memory result = new uint[](ownershipCounter[_owner]);\n        uint counter = 0;\n        for (uint i = 0; i < kitties.length; i++) {\n            if (kittyIdToOwner[i] == _owner) {\n                result[counter] = i;\n                counter++;\n            }\n        }\n        return result;\n    }\n\n    /* If the returns is specified in such way there is no need to write return, only asignments are enough */\n    function getKitty(uint256 _tokenId) external view returns(\n        uint256 genes,\n        uint256 birthTime,\n        uint256 mumId,\n        uint256 dadId,\n        uint256 generation,\n        address owner) \n    {\n        Kitty storage kitty = kitties[_tokenId];\n        \n        genes = uint256(kitty.genes);\n        birthTime = uint256(kitty.birthTime);\n        mumId = uint256(kitty.mumId);\n        dadId = uint256(kitty.dadId);\n        generation = uint256(kitty.generation);\n        owner = kittyIdToOwner[_tokenId];\n    }\n\n    function createNewGen0(uint256 genes) public onlyOwner returns(uint256) {\n        require(genCntr < CREATION_LIMIT_FOR_GEN, \"Limit achieved\");\n        genCntr++;\n        uint256 kittyId = _createKitty(genes,0,0,0,msg.sender);\n        return kittyId;\n    }\n\n    function _createKitty(\n        uint256 _genes,\n        uint32 _mumId,\n        uint32 _dadId,\n        uint16 _generation,\n        address _owner\n    ) private returns (uint256 tokenId) {\n        Kitty memory _kitty = Kitty({\n            genes: _genes,\n            birthTime: uint64(block.timestamp),\n            mumId: _mumId,\n            dadId: _dadId,\n            generation: _generation\n        });\n\n        kitties.push(_kitty);\n        uint256 newKittenId =  kitties.length - 1;\n\n        _transfer(address(0), _owner, newKittenId);\n\n        emit Birth(_owner, newKittenId, _genes, _mumId, _dadId);\n\n        return newKittenId;\n    }\n\n    /**\n     * @dev Returns the number of tokens in ``owner``'s account.\n     */\n    function balanceOf(address owner) external view returns (uint256 balance){\n        return ownershipCounter[owner];\n    }\n\n    /*\n     * @dev Returns the total number of tokens in circulation.\n     */\n    function totalSupply() external view returns (uint256 total){\n        return kitties.length;\n    }\n\n    /*\n     * @dev Returns the name of the token.\n     */\n    function name() external view returns (string memory tokenName){\n        return kittyName;\n    }\n\n    /*\n     * @dev Returns the symbol of the token.\n     */\n    function symbol() external view returns (string memory tokenSymbol){\n        return kittySymbol;\n    }\n    \n    /**\n     * @dev Returns the owner of the `tokenId` token.\n     *\n     */\n    function ownerOf(uint256 tokenId) external view returns (address owner){\n        return kittyIdToOwner[tokenId];\n    }\n\n\n     /* @dev Transfers `tokenId` token from `msg.sender` to `to`.\n     * Emits a {Transfer} event.\n     */\n    function transfer(address to, uint256 tokenId) external{\n        require(to != address(0), \"Recipient cannot have address 0\");\n        require(to != address(this), \"Recipient cannot have contract address\");\n        require(kittyIdToOwner[tokenId] == msg.sender, \"Kitty must be owned by a sender\");\n        \n        _transfer(msg.sender, to, tokenId);\n    }\n\n    /// @notice Change or reaffirm the approved address for an NFT\n    /// @dev The zero address indicates there is no approved address.\n    ///  Throws unless `msg.sender` is the current NFT owner, or an authorized\n    ///  operator of the current owner.\n    /// @param _approved The new approved NFT controller\n    /// @param _tokenId The NFT to approve\n    function approve(address _approved, uint256 _tokenId) external{\n        require((kittyIdToOwner[_tokenId] == msg.sender) || (kittyIndexToApproved[_tokenId] == msg.sender), \n            \"Kitty must be approved or owned by a sender\");\n        _approve(_approved, _tokenId);\n        emit Approval(msg.sender, _approved, _tokenId);\n    }\n\n    /// @notice Enable or disable approval for a third party (\"operator\") to manage\n    ///  all of `msg.sender`'s assets\n    /// @dev Emits the ApprovalForAll event. The contract MUST allow\n    ///  multiple operators per owner.\n    /// @param _operator Address to add to the set of authorized operators\n    /// @param _approved True if the operator is approved, false to revoke approval\n    function setApprovalForAll(address _operator, bool _approved) external{\n        //require((kittyIdToOwner[_tokenId] == msg.sender), \"Kitty must be owned by a sender\");\n        require(_operator != msg.sender, \"Operator address must be different than sender's address\");\n\n        /*ownersCats = getAllCatsFor(msg.sender);\n        for(uint256 i; i<ownersCats.length; i++) {\n            _approve(_operator, ownersCats[i]);\n        }*/\n        _operatorApprovals[msg.sender][_operator] = _approved;\n        emit ApprovalForAll(msg.sender, _operator, _approved);\n\n    }\n\n    /// @notice Get the approved address for a single NFT\n    /// @dev Throws if `_tokenId` is not a valid NFT.\n    /// @param _tokenId The NFT to find the approved address for\n    /// @return The approved address for this NFT, or the zero address if there is none\n    function getApproved(uint256 _tokenId) external view returns (address){\n        require(_tokenId < kitties.length, \"Token must exist\");\n        return kittyIndexToApproved[_tokenId];\n    }\n\n    /// @notice Query if an address is an authorized operator for another address\n    /// @param _owner The address that owns the NFTs\n    /// @param _operator The address that acts on behalf of the owner\n    /// @return True if `_operator` is an approved operator for `_owner`, false otherwise\n    function isApprovedForAll(address _owner, address _operator) external view returns (bool){\n        return _operatorApprovals[_owner][_operator];\n    }\n\n    /// @notice Transfers the ownership of an NFT from one address to another address\n    /// @dev Throws unless `msg.sender` is the current owner, an authorized\n    ///  operator, or the approved address for this NFT. Throws if `_from` is\n    ///  not the current owner. Throws if `_to` is the zero address. Throws if\n    ///  `_tokenId` is not a valid NFT. When transfer is complete, this function\n    ///  checks if `_to` is a smart contract (code size > 0). If so, it calls\n    ///  `onERC721Received` on `_to` and throws if the return value is not\n    ///  `bytes4(keccak256(\"onERC721Received(address,address,uint256,bytes)\"))`.\n    /// @param _from The current owner of the NFT\n    /// @param _to The new owner\n    /// @param _tokenId The NFT to transfer\n    /// @param data Additional data with no specified format, sent in call to `_to`\n    function safeTransferFrom(address _from, address _to, uint256 _tokenId, bytes calldata data) external \n    tranferableFrom(_from, _to, _tokenId) {\n\n        _safeTransfer(_from, _to, _tokenId, data);\n    }\n\n    /// @notice Transfers the ownership of an NFT from one address to another address\n    /// @dev This works identically to the other function with an extra data parameter,\n    ///  except this function just sets data to \"\".\n    /// @param _from The current owner of the NFT\n    /// @param _to The new owner\n    /// @param _tokenId The NFT to transfer\n    function safeTransferFrom(address _from, address _to, uint256 _tokenId) external{\n\n    }\n\n    /// @notice Transfer ownership of an NFT -- THE CALLER IS RESPONSIBLE\n    ///  TO CONFIRM THAT `_to` IS CAPABLE OF RECEIVING NFTS OR ELSE\n    ///  THEY MAY BE PERMANENTLY LOST\n    /// @dev Throws unless `msg.sender` is the current owner, an authorized\n    ///  operator, or the approved address for this NFT. Throws if `_from` is\n    ///  not the current owner. Throws if `_to` is the zero address. Throws if\n    ///  `_tokenId` is not a valid NFT.\n    /// @param _from The current owner of the NFT\n    /// @param _to The new owner\n    /// @param _tokenId The NFT to transfer\n    function transferFrom(address _from, address _to, uint256 _tokenId) external{\n        require((msg.sender == _from) || \n                (msg.sender == kittyIndexToApproved[_tokenId]) || \n                (true == _operatorApprovals[msg.sender][_from]));\n        require(_from == kittyIdToOwner[_tokenId]);\n        require(_to != address(0));\n        require(_tokenId < kitties.length);\n\n        _transfer(_from, _to, _tokenId);\n    }\n\n    function _transfer(address _from, address _to, uint256 _tokenId) internal {\n        kittyIdToOwner[_tokenId] = _to;\n        if(_from != address(0)) { // We do not want to decrease amount for minting\n            ownershipCounter[_from]--;\n            delete kittyIndexToApproved[_tokenId]; // It is very important for approval functionality\n            // We do not want to have approved people (who can sell this token) when we are buying nfts\n        }\n        ownershipCounter[_to]++;\n\n        emit Transfer(_from, _to, _tokenId);\n    }\n\n    function _approve(address _approved, uint256 _tokenId) private{\n        kittyIndexToApproved[_tokenId] = _approved;     \n    }\n\n    function _safeTransfer(address _from, address _to, uint256 _tokenId, bytes memory _data) private {\n        _transfer(_from, _to, _tokenId);\n        _checkERC721Support(_from, _to, _tokenId, _data);\n        \n    }\n\n    function _checkERC721Support(address _from, address _to, uint256 _tokenId, bytes memory _data) private returns(bool){\n        if(false == _isContract(_to)){\n            return true;\n        }\n        else{\n            bytes4 reuturnData = IERC721Receiver(_to).onERC721Received(msg.sender, _from, _tokenId, _data);\n            return (ERC721CONF == reuturnData);\n        }\n    }\n\n    function _isContract(address _to) view private returns(bool){\n        uint32 size;\n        assembly{\n            size := extcodesize(_to)\n        }\n        return size > 0;\n    }\n\n}",
  "sourcePath": "/home/anything/Blockchain/dapps/cryptokitties/academy-kitties-template/contracts/KittyContract.sol",
  "compiler": {
    "name": "solc",
    "version": "0.8.9+commit.e5eed63a.Emscripten.clang"
  },
  "schemaVersion": "3.4.3",
  "updatedAt": "2021-11-09T12:37:11.973Z",
  "devdoc": {
    "kind": "dev",
    "methods": {
      "approve(address,uint256)": {
        "details": "The zero address indicates there is no approved address.  Throws unless `msg.sender` is the current NFT owner, or an authorized  operator of the current owner.",
        "params": {
          "_approved": "The new approved NFT controller",
          "_tokenId": "The NFT to approve"
        }
      },
      "balanceOf(address)": {
        "details": "Returns the number of tokens in ``owner``'s account."
      },
      "getApproved(uint256)": {
        "details": "Throws if `_tokenId` is not a valid NFT.",
        "params": {
          "_tokenId": "The NFT to find the approved address for"
        },
        "returns": {
          "_0": "The approved address for this NFT, or the zero address if there is none"
        }
      },
      "isApprovedForAll(address,address)": {
        "params": {
          "_operator": "The address that acts on behalf of the owner",
          "_owner": "The address that owns the NFTs"
        },
        "returns": {
          "_0": "True if `_operator` is an approved operator for `_owner`, false otherwise"
        }
      },
      "ownerOf(uint256)": {
        "details": "Returns the owner of the `tokenId` token."
      },
      "safeTransferFrom(address,address,uint256)": {
        "details": "This works identically to the other function with an extra data parameter,  except this function just sets data to \"\".",
        "params": {
          "_from": "The current owner of the NFT",
          "_to": "The new owner",
          "_tokenId": "The NFT to transfer"
        }
      },
      "safeTransferFrom(address,address,uint256,bytes)": {
        "details": "Throws unless `msg.sender` is the current owner, an authorized  operator, or the approved address for this NFT. Throws if `_from` is  not the current owner. Throws if `_to` is the zero address. Throws if  `_tokenId` is not a valid NFT. When transfer is complete, this function  checks if `_to` is a smart contract (code size > 0). If so, it calls  `onERC721Received` on `_to` and throws if the return value is not  `bytes4(keccak256(\"onERC721Received(address,address,uint256,bytes)\"))`.",
        "params": {
          "_from": "The current owner of the NFT",
          "_to": "The new owner",
          "_tokenId": "The NFT to transfer",
          "data": "Additional data with no specified format, sent in call to `_to`"
        }
      },
      "setApprovalForAll(address,bool)": {
        "details": "Emits the ApprovalForAll event. The contract MUST allow  multiple operators per owner.",
        "params": {
          "_approved": "True if the operator is approved, false to revoke approval",
          "_operator": "Address to add to the set of authorized operators"
        }
      },
      "transferFrom(address,address,uint256)": {
        "details": "Throws unless `msg.sender` is the current owner, an authorized  operator, or the approved address for this NFT. Throws if `_from` is  not the current owner. Throws if `_to` is the zero address. Throws if  `_tokenId` is not a valid NFT.",
        "params": {
          "_from": "The current owner of the NFT",
          "_to": "The new owner",
          "_tokenId": "The NFT to transfer"
        }
      }
    },
    "version": 1
  },
  "userdoc": {
    "kind": "user",
    "methods": {
      "approve(address,uint256)": {
        "notice": "Change or reaffirm the approved address for an NFT"
      },
      "getApproved(uint256)": {
        "notice": "Get the approved address for a single NFT"
      },
      "isApprovedForAll(address,address)": {
        "notice": "Query if an address is an authorized operator for another address"
      },
      "safeTransferFrom(address,address,uint256)": {
        "notice": "Transfers the ownership of an NFT from one address to another address"
      },
      "safeTransferFrom(address,address,uint256,bytes)": {
        "notice": "Transfers the ownership of an NFT from one address to another address"
      },
      "setApprovalForAll(address,bool)": {
        "notice": "Enable or disable approval for a third party (\"operator\") to manage  all of `msg.sender`'s assets"
      },
      "transferFrom(address,address,uint256)": {
        "notice": "Transfer ownership of an NFT -- THE CALLER IS RESPONSIBLE  TO CONFIRM THAT `_to` IS CAPABLE OF RECEIVING NFTS OR ELSE  THEY MAY BE PERMANENTLY LOST"
      }
    },
    "version": 1
  }
}