{
  "contractName": "KittyContract",
  "abi": [
    {
      "inputs": [],
      "stateMutability": "nonpayable",
      "type": "constructor"
    },
    {
      "anonymous": false,
      "inputs": [
        {
          "indexed": true,
          "internalType": "address",
          "name": "owner",
          "type": "address"
        },
        {
          "indexed": true,
          "internalType": "address",
          "name": "approved",
          "type": "address"
        },
        {
          "indexed": true,
          "internalType": "uint256",
          "name": "tokenId",
          "type": "uint256"
        }
      ],
      "name": "Approval",
      "type": "event"
    },
    {
      "anonymous": false,
      "inputs": [
        {
          "indexed": true,
          "internalType": "address",
          "name": "owner",
          "type": "address"
        },
        {
          "indexed": true,
          "internalType": "address",
          "name": "operator",
          "type": "address"
        },
        {
          "indexed": false,
          "internalType": "bool",
          "name": "approved",
          "type": "bool"
        }
      ],
      "name": "ApprovalForAll",
      "type": "event"
    },
    {
      "anonymous": false,
      "inputs": [
        {
          "indexed": false,
          "internalType": "address",
          "name": "owner",
          "type": "address"
        },
        {
          "indexed": false,
          "internalType": "uint256",
          "name": "kittenId",
          "type": "uint256"
        },
        {
          "indexed": false,
          "internalType": "uint256",
          "name": "genes",
          "type": "uint256"
        },
        {
          "indexed": false,
          "internalType": "uint32",
          "name": "mumId",
          "type": "uint32"
        },
        {
          "indexed": false,
          "internalType": "uint32",
          "name": "dadId",
          "type": "uint32"
        }
      ],
      "name": "Birth",
      "type": "event"
    },
    {
      "anonymous": false,
      "inputs": [
        {
          "indexed": true,
          "internalType": "address",
          "name": "from",
          "type": "address"
        },
        {
          "indexed": true,
          "internalType": "address",
          "name": "to",
          "type": "address"
        },
        {
          "indexed": true,
          "internalType": "uint256",
          "name": "tokenId",
          "type": "uint256"
        }
      ],
      "name": "Transfer",
      "type": "event"
    },
    {
      "inputs": [],
      "name": "CREATION_LIMIT_FOR_GEN",
      "outputs": [
        {
          "internalType": "uint256",
          "name": "",
          "type": "uint256"
        }
      ],
      "stateMutability": "view",
      "type": "function",
      "constant": true
    },
    {
      "inputs": [],
      "name": "genCntr",
      "outputs": [
        {
          "internalType": "uint256",
          "name": "",
          "type": "uint256"
        }
      ],
      "stateMutability": "view",
      "type": "function",
      "constant": true
    },
    {
      "inputs": [
        {
          "internalType": "uint256",
          "name": "",
          "type": "uint256"
        }
      ],
      "name": "kitties",
      "outputs": [
        {
          "internalType": "uint256",
          "name": "genes",
          "type": "uint256"
        },
        {
          "internalType": "uint64",
          "name": "birthTime",
          "type": "uint64"
        },
        {
          "internalType": "uint32",
          "name": "mumId",
          "type": "uint32"
        },
        {
          "internalType": "uint32",
          "name": "dadId",
          "type": "uint32"
        },
        {
          "internalType": "uint16",
          "name": "generation",
          "type": "uint16"
        }
      ],
      "stateMutability": "view",
      "type": "function",
      "constant": true
    },
    {
      "inputs": [
        {
          "internalType": "uint256",
          "name": "",
          "type": "uint256"
        }
      ],
      "name": "kittyIdToOwner",
      "outputs": [
        {
          "internalType": "address",
          "name": "",
          "type": "address"
        }
      ],
      "stateMutability": "view",
      "type": "function",
      "constant": true
    },
    {
      "inputs": [
        {
          "internalType": "uint256",
          "name": "",
          "type": "uint256"
        }
      ],
      "name": "kittyIndexToApproved",
      "outputs": [
        {
          "internalType": "address",
          "name": "",
          "type": "address"
        }
      ],
      "stateMutability": "view",
      "type": "function",
      "constant": true
    },
    {
      "inputs": [],
      "name": "kittyName",
      "outputs": [
        {
          "internalType": "string",
          "name": "",
          "type": "string"
        }
      ],
      "stateMutability": "view",
      "type": "function",
      "constant": true
    },
    {
      "inputs": [],
      "name": "kittySymbol",
      "outputs": [
        {
          "internalType": "string",
          "name": "",
          "type": "string"
        }
      ],
      "stateMutability": "view",
      "type": "function",
      "constant": true
    },
    {
      "inputs": [],
      "name": "owner",
      "outputs": [
        {
          "internalType": "address",
          "name": "",
          "type": "address"
        }
      ],
      "stateMutability": "view",
      "type": "function",
      "constant": true
    },
    {
      "inputs": [
        {
          "internalType": "address",
          "name": "",
          "type": "address"
        }
      ],
      "name": "ownershipCounter",
      "outputs": [
        {
          "internalType": "uint256",
          "name": "",
          "type": "uint256"
        }
      ],
      "stateMutability": "view",
      "type": "function",
      "constant": true
    },
    {
      "inputs": [
        {
          "internalType": "bytes4",
          "name": "_interfaceId",
          "type": "bytes4"
        }
      ],
      "name": "supportInterface",
      "outputs": [
        {
          "internalType": "bool",
          "name": "",
          "type": "bool"
        }
      ],
      "stateMutability": "view",
      "type": "function",
      "constant": true
    },
    {
      "inputs": [
        {
          "internalType": "address",
          "name": "owner",
          "type": "address"
        }
      ],
      "name": "balanceOf",
      "outputs": [
        {
          "internalType": "uint256",
          "name": "balance",
          "type": "uint256"
        }
      ],
      "stateMutability": "view",
      "type": "function",
      "constant": true
    },
    {
      "inputs": [],
      "name": "totalSupply",
      "outputs": [
        {
          "internalType": "uint256",
          "name": "total",
          "type": "uint256"
        }
      ],
      "stateMutability": "view",
      "type": "function",
      "constant": true
    },
    {
      "inputs": [],
      "name": "name",
      "outputs": [
        {
          "internalType": "string",
          "name": "tokenName",
          "type": "string"
        }
      ],
      "stateMutability": "view",
      "type": "function",
      "constant": true
    },
    {
      "inputs": [],
      "name": "symbol",
      "outputs": [
        {
          "internalType": "string",
          "name": "tokenSymbol",
          "type": "string"
        }
      ],
      "stateMutability": "view",
      "type": "function",
      "constant": true
    },
    {
      "inputs": [
        {
          "internalType": "uint256",
          "name": "tokenId",
          "type": "uint256"
        }
      ],
      "name": "ownerOf",
      "outputs": [
        {
          "internalType": "address",
          "name": "owner",
          "type": "address"
        }
      ],
      "stateMutability": "view",
      "type": "function",
      "constant": true
    },
    {
      "inputs": [
        {
          "internalType": "address",
          "name": "to",
          "type": "address"
        },
        {
          "internalType": "uint256",
          "name": "tokenId",
          "type": "uint256"
        }
      ],
      "name": "transfer",
      "outputs": [],
      "stateMutability": "nonpayable",
      "type": "function"
    },
    {
      "inputs": [
        {
          "internalType": "address",
          "name": "_approved",
          "type": "address"
        },
        {
          "internalType": "uint256",
          "name": "_tokenId",
          "type": "uint256"
        }
      ],
      "name": "approve",
      "outputs": [],
      "stateMutability": "nonpayable",
      "type": "function"
    },
    {
      "inputs": [
        {
          "internalType": "address",
          "name": "_operator",
          "type": "address"
        },
        {
          "internalType": "bool",
          "name": "_approved",
          "type": "bool"
        }
      ],
      "name": "setApprovalForAll",
      "outputs": [],
      "stateMutability": "nonpayable",
      "type": "function"
    },
    {
      "inputs": [
        {
          "internalType": "uint256",
          "name": "_tokenId",
          "type": "uint256"
        }
      ],
      "name": "getApproved",
      "outputs": [
        {
          "internalType": "address",
          "name": "",
          "type": "address"
        }
      ],
      "stateMutability": "view",
      "type": "function",
      "constant": true
    },
    {
      "inputs": [
        {
          "internalType": "address",
          "name": "_owner",
          "type": "address"
        },
        {
          "internalType": "address",
          "name": "_operator",
          "type": "address"
        }
      ],
      "name": "isApprovedForAll",
      "outputs": [
        {
          "internalType": "bool",
          "name": "",
          "type": "bool"
        }
      ],
      "stateMutability": "view",
      "type": "function",
      "constant": true
    },
    {
      "inputs": [
        {
          "internalType": "address",
          "name": "_from",
          "type": "address"
        },
        {
          "internalType": "address",
          "name": "_to",
          "type": "address"
        },
        {
          "internalType": "uint256",
          "name": "_tokenId",
          "type": "uint256"
        }
      ],
      "name": "safeTransferFrom",
      "outputs": [],
      "stateMutability": "nonpayable",
      "type": "function"
    },
    {
      "inputs": [
        {
          "internalType": "address",
          "name": "_from",
          "type": "address"
        },
        {
          "internalType": "address",
          "name": "_to",
          "type": "address"
        },
        {
          "internalType": "uint256",
          "name": "_tokenId",
          "type": "uint256"
        },
        {
          "internalType": "bytes",
          "name": "data",
          "type": "bytes"
        }
      ],
      "name": "safeTransferFrom",
      "outputs": [],
      "stateMutability": "nonpayable",
      "type": "function"
    },
    {
      "inputs": [
        {
          "internalType": "address",
          "name": "_from",
          "type": "address"
        },
        {
          "internalType": "address",
          "name": "_to",
          "type": "address"
        },
        {
          "internalType": "uint256",
          "name": "_tokenId",
          "type": "uint256"
        }
      ],
      "name": "transferFrom",
      "outputs": [],
      "stateMutability": "nonpayable",
      "type": "function"
    },
    {
      "inputs": [
        {
          "internalType": "uint256",
          "name": "_dadId",
          "type": "uint256"
        },
        {
          "internalType": "uint256",
          "name": "_mumId",
          "type": "uint256"
        }
      ],
      "name": "breedCat",
      "outputs": [
        {
          "internalType": "uint256",
          "name": "",
          "type": "uint256"
        }
      ],
      "stateMutability": "nonpayable",
      "type": "function"
    },
    {
      "inputs": [
        {
          "internalType": "address",
          "name": "_owner",
          "type": "address"
        }
      ],
      "name": "getAllCatsFor",
      "outputs": [
        {
          "internalType": "uint256[]",
          "name": "cats",
          "type": "uint256[]"
        }
      ],
      "stateMutability": "view",
      "type": "function",
      "constant": true
    },
    {
      "inputs": [
        {
          "internalType": "uint256",
          "name": "_tokenId",
          "type": "uint256"
        }
      ],
      "name": "getKitty",
      "outputs": [
        {
          "internalType": "uint256",
          "name": "genes",
          "type": "uint256"
        },
        {
          "internalType": "uint256",
          "name": "birthTime",
          "type": "uint256"
        },
        {
          "internalType": "uint256",
          "name": "mumId",
          "type": "uint256"
        },
        {
          "internalType": "uint256",
          "name": "dadId",
          "type": "uint256"
        },
        {
          "internalType": "uint256",
          "name": "generation",
          "type": "uint256"
        },
        {
          "internalType": "address",
          "name": "owner",
          "type": "address"
        }
      ],
      "stateMutability": "view",
      "type": "function",
      "constant": true
    },
    {
      "inputs": [
        {
          "internalType": "uint256",
          "name": "genes",
          "type": "uint256"
        }
      ],
      "name": "createNewGen0",
      "outputs": [
        {
          "internalType": "uint256",
          "name": "",
          "type": "uint256"
        }
      ],
      "stateMutability": "nonpayable",
      "type": "function"
    }
  ],
  "bytecode": "0x60806040526380ac58cd60e01b600660006101000a81548163ffffffff021916908360e01c02179055506301ffc9a760e01b600660046101000a81548163ffffffff021916908360e01c021790555034801561005a57600080fd5b5033600160006101000a81548173ffffffffffffffffffffffffffffffffffffffff021916908373ffffffffffffffffffffffffffffffffffffffff160217905550612d3e806100ab6000396000f3fe608060405234801561001057600080fd5b50600436106101a95760003560e01c806370a08231116100f9578063a22cb46511610097578063bc762fff11610071578063bc762fff1461051e578063d81651d61461053c578063e985e9c51461055a578063e98b7f4d1461058a576101a9565b8063a22cb465146104ca578063a9059cbb146104e6578063b88d4fde14610502576101a9565b80638cc51eda116100d35780638cc51eda1461042a5780638da5cb5b1461045e57806395d89b411461047c5780639aa170271461049a576101a9565b806370a08231146103ac57806375e79be6146103dc578063812d41a11461040c576101a9565b806323b872dd1161016657806342842e0e1161014057806342842e0e14610300578063481af3d31461031c5780635a64aafa1461034c5780636352211e1461037c576101a9565b806323b872dd146102845780632595a8c9146102a057806330add369146102d0576101a9565b806306fdde03146101ae578063081812fc146101cc578063095ea7b3146101fc57806312f9b861146102185780631419074c1461023657806318160ddd14610266575b600080fd5b6101b66105bf565b6040516101c39190611fb6565b60405180910390f35b6101e660048036038101906101e19190612018565b6105fc565b6040516101f39190612086565b60405180910390f35b610216600480360381019061021191906120cd565b610680565b005b6102206107f3565b60405161022d9190611fb6565b60405180910390f35b610250600480360381019061024b919061210d565b61082c565b60405161025d919061215c565b60405180910390f35b61026e610a0a565b60405161027b919061215c565b60405180910390f35b61029e60048036038101906102999190612177565b610a17565b005b6102ba60048036038101906102b59190612018565b610c16565b6040516102c79190612086565b60405180910390f35b6102ea60048036038101906102e591906121ca565b610c49565b6040516102f7919061215c565b60405180910390f35b61031a60048036038101906103159190612177565b610c61565b005b61033660048036038101906103319190612018565b610e76565b6040516103439190612086565b60405180910390f35b610366600480360381019061036191906121ca565b610ea9565b60405161037391906122b5565b60405180910390f35b61039660048036038101906103919190612018565b610ffc565b6040516103a39190612086565b60405180910390f35b6103c660048036038101906103c191906121ca565b611039565b6040516103d3919061215c565b60405180910390f35b6103f660048036038101906103f1919061232f565b611082565b6040516104039190612377565b60405180910390f35b610414611132565b6040516104219190611fb6565b60405180910390f35b610444600480360381019061043f9190612018565b61116b565b6040516104559594939291906123f1565b60405180910390f35b6104666111f3565b6040516104739190612086565b60405180910390f35b610484611219565b6040516104919190611fb6565b60405180910390f35b6104b460048036038101906104af9190612018565b611256565b6040516104c1919061215c565b60405180910390f35b6104e460048036038101906104df9190612470565b61132a565b005b61050060048036038101906104fb91906120cd565b611496565b005b61051c60048036038101906105179190612515565b611625565b005b610526611871565b604051610533919061215c565b60405180910390f35b610544611876565b604051610551919061215c565b60405180910390f35b610574600480360381019061056f919061259d565b61187c565b6040516105819190612377565b60405180910390f35b6105a4600480360381019061059f9190612018565b611910565b6040516105b6969594939291906125dd565b60405180910390f35b60606040518060400160405280600b81526020017f4b69747479455243373231000000000000000000000000000000000000000000815250905090565b60006005805490508210610645576040517f08c379a000000000000000000000000000000000000000000000000000000000815260040161063c9061268a565b60405180910390fd5b6004600083815260200190815260200160002060009054906101000a900473ffffffffffffffffffffffffffffffffffffffff169050919050565b3373ffffffffffffffffffffffffffffffffffffffff166003600083815260200190815260200160002060009054906101000a900473ffffffffffffffffffffffffffffffffffffffff1673ffffffffffffffffffffffffffffffffffffffff16148061074b57503373ffffffffffffffffffffffffffffffffffffffff166004600083815260200190815260200160002060009054906101000a900473ffffffffffffffffffffffffffffffffffffffff1673ffffffffffffffffffffffffffffffffffffffff16145b61078a576040517f08c379a00000000000000000000000000000000000000000000000000000000081526004016107819061271c565b60405180910390fd5b61079482826119fe565b808273ffffffffffffffffffffffffffffffffffffffff163373ffffffffffffffffffffffffffffffffffffffff167f8c5be1e5ebec7d5bd14f71427d1e84f3dd0314c0f7b2291e5b200ac8c7c3b92560405160405180910390a45050565b6040518060400160405280600b81526020017f4b6974747945524337323100000000000000000000000000000000000000000081525081565b60003373ffffffffffffffffffffffffffffffffffffffff166003600085815260200190815260200160002060009054906101000a900473ffffffffffffffffffffffffffffffffffffffff1673ffffffffffffffffffffffffffffffffffffffff161480156108fa57503373ffffffffffffffffffffffffffffffffffffffff166003600084815260200190815260200160002060009054906101000a900473ffffffffffffffffffffffffffffffffffffffff1673ffffffffffffffffffffffffffffffffffffffff16145b61090357600080fd5b60006109596005858154811061091c5761091b61273c565b5b906000526020600020906002020160000154600585815481106109425761094161273c565b5b906000526020600020906002020160000154611a54565b9050600060016002600586815481106109755761097461273c565b5b906000526020600020906002020160010160109054906101000a900461ffff16600588815481106109a9576109a861273c565b5b906000526020600020906002020160010160109054906101000a900461ffff166109d3919061279a565b6109dd9190612801565b6109e7919061279a565b61ffff16905060006109fc8386888533611a7f565b905080935050505092915050565b6000600580549050905090565b8273ffffffffffffffffffffffffffffffffffffffff163373ffffffffffffffffffffffffffffffffffffffff161480610aaf57506004600082815260200190815260200160002060009054906101000a900473ffffffffffffffffffffffffffffffffffffffff1673ffffffffffffffffffffffffffffffffffffffff163373ffffffffffffffffffffffffffffffffffffffff16145b80610b475750600760003373ffffffffffffffffffffffffffffffffffffffff1673ffffffffffffffffffffffffffffffffffffffff16815260200190815260200160002060008473ffffffffffffffffffffffffffffffffffffffff1673ffffffffffffffffffffffffffffffffffffffff16815260200190815260200160002060009054906101000a900460ff16151560011515145b610b5057600080fd5b6003600082815260200190815260200160002060009054906101000a900473ffffffffffffffffffffffffffffffffffffffff1673ffffffffffffffffffffffffffffffffffffffff168373ffffffffffffffffffffffffffffffffffffffff1614610bbb57600080fd5b600073ffffffffffffffffffffffffffffffffffffffff168273ffffffffffffffffffffffffffffffffffffffff161415610bf557600080fd5b6005805490508110610c0657600080fd5b610c11838383611c0c565b505050565b60036020528060005260406000206000915054906101000a900473ffffffffffffffffffffffffffffffffffffffff1681565b60026020528060005260406000206000915090505481565b8282828273ffffffffffffffffffffffffffffffffffffffff163373ffffffffffffffffffffffffffffffffffffffff161480610cfc57506004600082815260200190815260200160002060009054906101000a900473ffffffffffffffffffffffffffffffffffffffff1673ffffffffffffffffffffffffffffffffffffffff163373ffffffffffffffffffffffffffffffffffffffff16145b80610d945750600760003373ffffffffffffffffffffffffffffffffffffffff1673ffffffffffffffffffffffffffffffffffffffff16815260200190815260200160002060008473ffffffffffffffffffffffffffffffffffffffff1673ffffffffffffffffffffffffffffffffffffffff16815260200190815260200160002060009054906101000a900460ff16151560011515145b610d9d57600080fd5b6003600082815260200190815260200160002060009054906101000a900473ffffffffffffffffffffffffffffffffffffffff1673ffffffffffffffffffffffffffffffffffffffff168373ffffffffffffffffffffffffffffffffffffffff1614610e0857600080fd5b600073ffffffffffffffffffffffffffffffffffffffff168273ffffffffffffffffffffffffffffffffffffffff161415610e4257600080fd5b6005805490508110610e5357600080fd5b610e6e86868660405180602001604052806000815250611dd3565b505050505050565b60046020528060005260406000206000915054906101000a900473ffffffffffffffffffffffffffffffffffffffff1681565b60606000600260008473ffffffffffffffffffffffffffffffffffffffff1673ffffffffffffffffffffffffffffffffffffffff1681526020019081526020016000205467ffffffffffffffff811115610f0657610f05612832565b5b604051908082528060200260200182016040528015610f345781602001602082028036833780820191505090505b5090506000805b600580549050811015610ff1578473ffffffffffffffffffffffffffffffffffffffff166003600083815260200190815260200160002060009054906101000a900473ffffffffffffffffffffffffffffffffffffffff1673ffffffffffffffffffffffffffffffffffffffff161415610fde5780838381518110610fc357610fc261273c565b5b6020026020010181815250508180610fda90612861565b9250505b8080610fe990612861565b915050610f3b565b508192505050919050565b60006003600083815260200190815260200160002060009054906101000a900473ffffffffffffffffffffffffffffffffffffffff169050919050565b6000600260008373ffffffffffffffffffffffffffffffffffffffff1673ffffffffffffffffffffffffffffffffffffffff168152602001908152602001600020549050919050565b6000600660009054906101000a900460e01b7bffffffffffffffffffffffffffffffffffffffffffffffffffffffff1916827bffffffffffffffffffffffffffffffffffffffffffffffffffffffff1916148061112b5750600660049054906101000a900460e01b7bffffffffffffffffffffffffffffffffffffffffffffffffffffffff1916827bffffffffffffffffffffffffffffffffffffffffffffffffffffffff1916145b9050919050565b6040518060400160405280600681526020017f4b5454373231000000000000000000000000000000000000000000000000000081525081565b6005818154811061117b57600080fd5b90600052602060002090600202016000915090508060000154908060010160009054906101000a900467ffffffffffffffff16908060010160089054906101000a900463ffffffff169080600101600c9054906101000a900463ffffffff16908060010160109054906101000a900461ffff16905085565b600160009054906101000a900473ffffffffffffffffffffffffffffffffffffffff1681565b60606040518060400160405280600681526020017f4b54543732310000000000000000000000000000000000000000000000000000815250905090565b6000600160009054906101000a900473ffffffffffffffffffffffffffffffffffffffff1673ffffffffffffffffffffffffffffffffffffffff163373ffffffffffffffffffffffffffffffffffffffff16146112b257600080fd5b600a600054106112f7576040517f08c379a00000000000000000000000000000000000000000000000000000000081526004016112ee906128f6565b60405180910390fd5b60008081548092919061130990612861565b9190505550600061131f83600080600033611a7f565b905080915050919050565b3373ffffffffffffffffffffffffffffffffffffffff168273ffffffffffffffffffffffffffffffffffffffff161415611399576040517f08c379a000000000000000000000000000000000000000000000000000000000815260040161139090612988565b60405180910390fd5b80600760003373ffffffffffffffffffffffffffffffffffffffff1673ffffffffffffffffffffffffffffffffffffffff16815260200190815260200160002060008473ffffffffffffffffffffffffffffffffffffffff1673ffffffffffffffffffffffffffffffffffffffff16815260200190815260200160002060006101000a81548160ff0219169083151502179055508173ffffffffffffffffffffffffffffffffffffffff163373ffffffffffffffffffffffffffffffffffffffff167f17307eab39ab6107e8899845ad3d59bd9653f200f220920489ca2b5937696c318360405161148a9190612377565b60405180910390a35050565b600073ffffffffffffffffffffffffffffffffffffffff168273ffffffffffffffffffffffffffffffffffffffff161415611506576040517f08c379a00000000000000000000000000000000000000000000000000000000081526004016114fd906129f4565b60405180910390fd5b3073ffffffffffffffffffffffffffffffffffffffff168273ffffffffffffffffffffffffffffffffffffffff161415611575576040517f08c379a000000000000000000000000000000000000000000000000000000000815260040161156c90612a86565b60405180910390fd5b3373ffffffffffffffffffffffffffffffffffffffff166003600083815260200190815260200160002060009054906101000a900473ffffffffffffffffffffffffffffffffffffffff1673ffffffffffffffffffffffffffffffffffffffff1614611616576040517f08c379a000000000000000000000000000000000000000000000000000000000815260040161160d90612af2565b60405180910390fd5b611621338383611c0c565b5050565b8484848273ffffffffffffffffffffffffffffffffffffffff163373ffffffffffffffffffffffffffffffffffffffff1614806116c057506004600082815260200190815260200160002060009054906101000a900473ffffffffffffffffffffffffffffffffffffffff1673ffffffffffffffffffffffffffffffffffffffff163373ffffffffffffffffffffffffffffffffffffffff16145b806117585750600760003373ffffffffffffffffffffffffffffffffffffffff1673ffffffffffffffffffffffffffffffffffffffff16815260200190815260200160002060008473ffffffffffffffffffffffffffffffffffffffff1673ffffffffffffffffffffffffffffffffffffffff16815260200190815260200160002060009054906101000a900460ff16151560011515145b61176157600080fd5b6003600082815260200190815260200160002060009054906101000a900473ffffffffffffffffffffffffffffffffffffffff1673ffffffffffffffffffffffffffffffffffffffff168373ffffffffffffffffffffffffffffffffffffffff16146117cc57600080fd5b600073ffffffffffffffffffffffffffffffffffffffff168273ffffffffffffffffffffffffffffffffffffffff16141561180657600080fd5b600580549050811061181757600080fd5b61186788888888888080601f016020809104026020016040519081016040528093929190818152602001838380828437600081840152601f19601f82011690508083019250505050505050611dd3565b5050505050505050565b600a81565b60005481565b6000600760008473ffffffffffffffffffffffffffffffffffffffff1673ffffffffffffffffffffffffffffffffffffffff16815260200190815260200160002060008373ffffffffffffffffffffffffffffffffffffffff1673ffffffffffffffffffffffffffffffffffffffff16815260200190815260200160002060009054906101000a900460ff16905092915050565b60008060008060008060006005888154811061192f5761192e61273c565b5b90600052602060002090600202019050806000015496508060010160009054906101000a900467ffffffffffffffff1667ffffffffffffffff1695508060010160089054906101000a900463ffffffff1663ffffffff16945080600101600c9054906101000a900463ffffffff1663ffffffff1693508060010160109054906101000a900461ffff1661ffff1692506003600089815260200190815260200160002060009054906101000a900473ffffffffffffffffffffffffffffffffffffffff1691505091939550919395565b816004600083815260200190815260200160002060006101000a81548173ffffffffffffffffffffffffffffffffffffffff021916908373ffffffffffffffffffffffffffffffffffffffff1602179055505050565b60006305f5e10082611a669190612b12565b6305f5e10084611a769190612b43565b17905092915050565b6000806040518060a001604052808881526020014267ffffffffffffffff1681526020018763ffffffff1681526020018663ffffffff1681526020018561ffff16815250905060058190806001815401808255809150506001900390600052602060002090600202016000909190919091506000820151816000015560208201518160010160006101000a81548167ffffffffffffffff021916908367ffffffffffffffff16021790555060408201518160010160086101000a81548163ffffffff021916908363ffffffff160217905550606082015181600101600c6101000a81548163ffffffff021916908363ffffffff16021790555060808201518160010160106101000a81548161ffff021916908361ffff160217905550505060006001600580549050611bb19190612b74565b9050611bbf60008583611c0c565b7fce9a7bfb6cd6f2bc1fd24f63e9c089acf32aa29cde8340179d8728c4a5c8b90784828a8a8a604051611bf6959493929190612ba8565b60405180910390a1809250505095945050505050565b816003600083815260200190815260200160002060006101000a81548173ffffffffffffffffffffffffffffffffffffffff021916908373ffffffffffffffffffffffffffffffffffffffff160217905550600073ffffffffffffffffffffffffffffffffffffffff168373ffffffffffffffffffffffffffffffffffffffff1614611d1e57600260008473ffffffffffffffffffffffffffffffffffffffff1673ffffffffffffffffffffffffffffffffffffffff1681526020019081526020016000206000815480929190611ce290612bfb565b91905055506004600082815260200190815260200160002060006101000a81549073ffffffffffffffffffffffffffffffffffffffff02191690555b600260008373ffffffffffffffffffffffffffffffffffffffff1673ffffffffffffffffffffffffffffffffffffffff1681526020019081526020016000206000815480929190611d6e90612861565b9190505550808273ffffffffffffffffffffffffffffffffffffffff168473ffffffffffffffffffffffffffffffffffffffff167fddf252ad1be2c89b69c2b068fc378daa952ba7f163c4a11628f55a4df523b3ef60405160405180910390a4505050565b611dde848484611c0c565b611dea84848484611df1565b5050505050565b6000611dfc84611f04565b1515600015151415611e115760019050611efc565b60008473ffffffffffffffffffffffffffffffffffffffff1663150b7a02338887876040518563ffffffff1660e01b8152600401611e529493929190612c7a565b6020604051808303816000875af1158015611e71573d6000803e3d6000fd5b505050506040513d601f19601f82011682018060405250810190611e959190612cdb565b9050807bffffffffffffffffffffffffffffffffffffffffffffffffffffffff19167f150b7a023d4804d13e8c85fb27262cb750cf6ba9f9dd3bb30d90f482ceeb4b1f7bffffffffffffffffffffffffffffffffffffffffffffffffffffffff1916149150505b949350505050565b600080823b905060008163ffffffff1611915050919050565b600081519050919050565b600082825260208201905092915050565b60005b83811015611f57578082015181840152602081019050611f3c565b83811115611f66576000848401525b50505050565b6000601f19601f8301169050919050565b6000611f8882611f1d565b611f928185611f28565b9350611fa2818560208601611f39565b611fab81611f6c565b840191505092915050565b60006020820190508181036000830152611fd08184611f7d565b905092915050565b600080fd5b600080fd5b6000819050919050565b611ff581611fe2565b811461200057600080fd5b50565b60008135905061201281611fec565b92915050565b60006020828403121561202e5761202d611fd8565b5b600061203c84828501612003565b91505092915050565b600073ffffffffffffffffffffffffffffffffffffffff82169050919050565b600061207082612045565b9050919050565b61208081612065565b82525050565b600060208201905061209b6000830184612077565b92915050565b6120aa81612065565b81146120b557600080fd5b50565b6000813590506120c7816120a1565b92915050565b600080604083850312156120e4576120e3611fd8565b5b60006120f2858286016120b8565b925050602061210385828601612003565b9150509250929050565b6000806040838503121561212457612123611fd8565b5b600061213285828601612003565b925050602061214385828601612003565b9150509250929050565b61215681611fe2565b82525050565b6000602082019050612171600083018461214d565b92915050565b6000806000606084860312156121905761218f611fd8565b5b600061219e868287016120b8565b93505060206121af868287016120b8565b92505060406121c086828701612003565b9150509250925092565b6000602082840312156121e0576121df611fd8565b5b60006121ee848285016120b8565b91505092915050565b600081519050919050565b600082825260208201905092915050565b6000819050602082019050919050565b61222c81611fe2565b82525050565b600061223e8383612223565b60208301905092915050565b6000602082019050919050565b6000612262826121f7565b61226c8185612202565b935061227783612213565b8060005b838110156122a857815161228f8882612232565b975061229a8361224a565b92505060018101905061227b565b5085935050505092915050565b600060208201905081810360008301526122cf8184612257565b905092915050565b60007fffffffff0000000000000000000000000000000000000000000000000000000082169050919050565b61230c816122d7565b811461231757600080fd5b50565b60008135905061232981612303565b92915050565b60006020828403121561234557612344611fd8565b5b60006123538482850161231a565b91505092915050565b60008115159050919050565b6123718161235c565b82525050565b600060208201905061238c6000830184612368565b92915050565b600067ffffffffffffffff82169050919050565b6123af81612392565b82525050565b600063ffffffff82169050919050565b6123ce816123b5565b82525050565b600061ffff82169050919050565b6123eb816123d4565b82525050565b600060a082019050612406600083018861214d565b61241360208301876123a6565b61242060408301866123c5565b61242d60608301856123c5565b61243a60808301846123e2565b9695505050505050565b61244d8161235c565b811461245857600080fd5b50565b60008135905061246a81612444565b92915050565b6000806040838503121561248757612486611fd8565b5b6000612495858286016120b8565b92505060206124a68582860161245b565b9150509250929050565b600080fd5b600080fd5b600080fd5b60008083601f8401126124d5576124d46124b0565b5b8235905067ffffffffffffffff8111156124f2576124f16124b5565b5b60208301915083600182028301111561250e5761250d6124ba565b5b9250929050565b60008060008060006080868803121561253157612530611fd8565b5b600061253f888289016120b8565b9550506020612550888289016120b8565b945050604061256188828901612003565b935050606086013567ffffffffffffffff81111561258257612581611fdd565b5b61258e888289016124bf565b92509250509295509295909350565b600080604083850312156125b4576125b3611fd8565b5b60006125c2858286016120b8565b92505060206125d3858286016120b8565b9150509250929050565b600060c0820190506125f2600083018961214d565b6125ff602083018861214d565b61260c604083018761214d565b612619606083018661214d565b612626608083018561214d565b61263360a0830184612077565b979650505050505050565b7f546f6b656e206d75737420657869737400000000000000000000000000000000600082015250565b6000612674601083611f28565b915061267f8261263e565b602082019050919050565b600060208201905081810360008301526126a381612667565b9050919050565b7f4b69747479206d75737420626520617070726f766564206f72206f776e65642060008201527f627920612073656e646572000000000000000000000000000000000000000000602082015250565b6000612706602b83611f28565b9150612711826126aa565b604082019050919050565b60006020820190508181036000830152612735816126f9565b9050919050565b7f4e487b7100000000000000000000000000000000000000000000000000000000600052603260045260246000fd5b7f4e487b7100000000000000000000000000000000000000000000000000000000600052601160045260246000fd5b60006127a5826123d4565b91506127b0836123d4565b92508261ffff038211156127c7576127c661276b565b5b828201905092915050565b7f4e487b7100000000000000000000000000000000000000000000000000000000600052601260045260246000fd5b600061280c826123d4565b9150612817836123d4565b925082612827576128266127d2565b5b828204905092915050565b7f4e487b7100000000000000000000000000000000000000000000000000000000600052604160045260246000fd5b600061286c82611fe2565b91507fffffffffffffffffffffffffffffffffffffffffffffffffffffffffffffffff82141561289f5761289e61276b565b5b600182019050919050565b7f4c696d6974206163686965766564000000000000000000000000000000000000600082015250565b60006128e0600e83611f28565b91506128eb826128aa565b602082019050919050565b6000602082019050818103600083015261290f816128d3565b9050919050565b7f4f70657261746f722061646472657373206d757374206265206469666665726560008201527f6e74207468616e2073656e646572277320616464726573730000000000000000602082015250565b6000612972603883611f28565b915061297d82612916565b604082019050919050565b600060208201905081810360008301526129a181612965565b9050919050565b7f526563697069656e742063616e6e6f7420686176652061646472657373203000600082015250565b60006129de601f83611f28565b91506129e9826129a8565b602082019050919050565b60006020820190508181036000830152612a0d816129d1565b9050919050565b7f526563697069656e742063616e6e6f74206861766520636f6e7472616374206160008201527f6464726573730000000000000000000000000000000000000000000000000000602082015250565b6000612a70602683611f28565b9150612a7b82612a14565b604082019050919050565b60006020820190508181036000830152612a9f81612a63565b9050919050565b7f4b69747479206d757374206265206f776e656420627920612073656e64657200600082015250565b6000612adc601f83611f28565b9150612ae782612aa6565b602082019050919050565b60006020820190508181036000830152612b0b81612acf565b9050919050565b6000612b1d82611fe2565b9150612b2883611fe2565b925082612b3857612b376127d2565b5b828206905092915050565b6000612b4e82611fe2565b9150612b5983611fe2565b925082612b6957612b686127d2565b5b828204905092915050565b6000612b7f82611fe2565b9150612b8a83611fe2565b925082821015612b9d57612b9c61276b565b5b828203905092915050565b600060a082019050612bbd6000830188612077565b612bca602083018761214d565b612bd7604083018661214d565b612be460608301856123c5565b612bf160808301846123c5565b9695505050505050565b6000612c0682611fe2565b91506000821415612c1a57612c1961276b565b5b600182039050919050565b600081519050919050565b600082825260208201905092915050565b6000612c4c82612c25565b612c568185612c30565b9350612c66818560208601611f39565b612c6f81611f6c565b840191505092915050565b6000608082019050612c8f6000830187612077565b612c9c6020830186612077565b612ca9604083018561214d565b8181036060830152612cbb8184612c41565b905095945050505050565b600081519050612cd581612303565b92915050565b600060208284031215612cf157612cf0611fd8565b5b6000612cff84828501612cc6565b9150509291505056fea26469706673582212207ca4a1c95bdc0c42b4237583c096b7336ff64a38ef890c7c4719f20c9494c7fe64736f6c634300080b0033",
  "immutableReferences": {},
  "source": "pragma solidity ^0.8.0;\n\nimport \"./IERC721.sol\";\nimport \"./IERC721Receiver.sol\";\n//import \"./Contract.sol\";\n\ncontract KittyContract is IERC721 {\n\n    //Data structures\n    struct Kitty{\n        uint256 genes;\n        uint64 birthTime;\n        uint32 mumId;\n        uint32 dadId;\n        uint16 generation;\n    }\n    event Birth(\n        address owner,\n        uint256 kittenId,\n        uint256 genes,\n        uint32 mumId,\n        uint32 dadId\n    );\n\n    //Global variables\n    string public constant kittyName = \"KittyERC721\";\n    string public constant kittySymbol = \"KTT721\";\n    uint256 public constant CREATION_LIMIT_FOR_GEN = 10;\n    uint256 public genCntr;\n    address public owner;\n    mapping(address => uint256) public ownershipCounter;\n    mapping(uint256 => address) public kittyIdToOwner;\n    mapping(uint256 => address) public kittyIndexToApproved;\n    Kitty[] public kitties;\n\n    //Local variables\n    bytes4 internal constant ERC721CONF = bytes4(keccak256(\"onERC721Received(address,address,uint256,bytes)\"));\n    bytes4 internal _INTERFACE_ID_ERC721 = 0x80ac58cd;\n    bytes4 internal _INTERFACE_ID_ERC165 = 0x01ffc9a7;\n    mapping(address => mapping(address => bool)) private _operatorApprovals;\n\n    //Constructor\n    constructor() {\n        owner = msg.sender;\n    }\n\n    //Modifiers\n    modifier onlyOwner{\n        require(msg.sender == owner);\n        _;\n    }\n    modifier tranferableFrom( address _from, address _to, uint256 _tokenId){\n        require((msg.sender == _from) || \n                (msg.sender == kittyIndexToApproved[_tokenId]) || \n                (true == _operatorApprovals[msg.sender][_from]));\n        require(_from == kittyIdToOwner[_tokenId]);\n        require(_to != address(0));\n        require(_tokenId < kitties.length);\n        _;\n    }\n\n    // **** ERC165 - Functions\n    function supportInterface(bytes4 _interfaceId) external view returns (bool){\n        return (_interfaceId == _INTERFACE_ID_ERC721 || _interfaceId == _INTERFACE_ID_ERC165);\n    }\n\n    // **** ERC721 - Functions\n    /**\n     * @dev Returns the number of tokens in ``owner``'s account.\n     */\n    function balanceOf(address owner) external view returns (uint256 balance){\n        return ownershipCounter[owner];\n    }\n\n    /*\n     * @dev Returns the total number of tokens in circulation.\n     */\n    function totalSupply() external view returns (uint256 total){\n        return kitties.length;\n    }\n\n    /*\n     * @dev Returns the name of the token.\n     */\n    function name() external view returns (string memory tokenName){\n        return kittyName;\n    }\n\n    /*\n     * @dev Returns the symbol of the token.\n     */\n    function symbol() external view returns (string memory tokenSymbol){\n        return kittySymbol;\n    }\n    \n    /**\n     * @dev Returns the owner of the `tokenId` token.\n     *\n     */\n    function ownerOf(uint256 tokenId) external view returns (address owner){\n        return kittyIdToOwner[tokenId];\n    }\n\n\n     /* @dev Transfers `tokenId` token from `msg.sender` to `to`.\n     * Emits a {Transfer} event.\n     */\n    function transfer(address to, uint256 tokenId) external{\n        require(to != address(0), \"Recipient cannot have address 0\");\n        require(to != address(this), \"Recipient cannot have contract address\");\n        require(kittyIdToOwner[tokenId] == msg.sender, \"Kitty must be owned by a sender\");\n        \n        _transfer(msg.sender, to, tokenId);\n    }\n\n    /// @notice Change or reaffirm the approved address for an NFT\n    /// @dev The zero address indicates there is no approved address.\n    ///  Throws unless `msg.sender` is the current NFT owner, or an authorized\n    ///  operator of the current owner.\n    /// @param _approved The new approved NFT controller\n    /// @param _tokenId The NFT to approve\n    function approve(address _approved, uint256 _tokenId) external{\n        require((kittyIdToOwner[_tokenId] == msg.sender) || (kittyIndexToApproved[_tokenId] == msg.sender), \n            \"Kitty must be approved or owned by a sender\");\n        _approve(_approved, _tokenId);\n        emit Approval(msg.sender, _approved, _tokenId);\n    }\n\n    /// @notice Enable or disable approval for a third party (\"operator\") to manage\n    ///  all of `msg.sender`'s assets\n    /// @dev Emits the ApprovalForAll event. The contract MUST allow\n    ///  multiple operators per owner.\n    /// @param _operator Address to add to the set of authorized operators\n    /// @param _approved True if the operator is approved, false to revoke approval\n    function setApprovalForAll(address _operator, bool _approved) external{\n        //require((kittyIdToOwner[_tokenId] == msg.sender), \"Kitty must be owned by a sender\");\n        require(_operator != msg.sender, \"Operator address must be different than sender's address\");\n\n        /*ownersCats = getAllCatsFor(msg.sender);\n        for(uint256 i; i<ownersCats.length; i++) {\n            _approve(_operator, ownersCats[i]);\n        }*/\n        _operatorApprovals[msg.sender][_operator] = _approved;\n        emit ApprovalForAll(msg.sender, _operator, _approved);\n\n    }\n\n    /// @notice Get the approved address for a single NFT\n    /// @dev Throws if `_tokenId` is not a valid NFT.\n    /// @param _tokenId The NFT to find the approved address for\n    /// @return The approved address for this NFT, or the zero address if there is none\n    function getApproved(uint256 _tokenId) external view returns (address){\n        require(_tokenId < kitties.length, \"Token must exist\");\n        return kittyIndexToApproved[_tokenId];\n    }\n\n    /// @notice Query if an address is an authorized operator for another address\n    /// @param _owner The address that owns the NFTs\n    /// @param _operator The address that acts on behalf of the owner\n    /// @return True if `_operator` is an approved operator for `_owner`, false otherwise\n    function isApprovedForAll(address _owner, address _operator) external view returns (bool){\n        return _operatorApprovals[_owner][_operator];\n    }\n\n    /// @notice Transfers the ownership of an NFT from one address to another address\n    /// @dev Throws unless `msg.sender` is the current owner, an authorized\n    ///  operator, or the approved address for this NFT. Throws if `_from` is\n    ///  not the current owner. Throws if `_to` is the zero address. Throws if\n    ///  `_tokenId` is not a valid NFT. When transfer is complete, this function\n    ///  checks if `_to` is a smart contract (code size > 0). If so, it calls\n    ///  `onERC721Received` on `_to` and throws if the return value is not\n    ///  `bytes4(keccak256(\"onERC721Received(address,address,uint256,bytes)\"))`.\n    /// @param _from The current owner of the NFT\n    /// @param _to The new owner\n    /// @param _tokenId The NFT to transfer\n    /// @param data Additional data with no specified format, sent in call to `_to`\n    function safeTransferFrom(address _from, address _to, uint256 _tokenId, bytes calldata data) external \n    tranferableFrom(_from, _to, _tokenId) {\n\n        _safeTransfer(_from, _to, _tokenId, data);\n    }\n\n    /// @notice Transfers the ownership of an NFT from one address to another address\n    /// @dev This works identically to the other function with an extra data parameter,\n    ///  except this function just sets data to \"\".\n    /// @param _from The current owner of the NFT\n    /// @param _to The new owner\n    /// @param _tokenId The NFT to transfer\n    function safeTransferFrom(address _from, address _to, uint256 _tokenId) external\n    tranferableFrom(_from, _to, _tokenId) {\n\n        _safeTransfer(_from, _to, _tokenId, \"\");\n    }\n\n    /// @notice Transfer ownership of an NFT -- THE CALLER IS RESPONSIBLE\n    ///  TO CONFIRM THAT `_to` IS CAPABLE OF RECEIVING NFTS OR ELSE\n    ///  THEY MAY BE PERMANENTLY LOST\n    /// @dev Throws unless `msg.sender` is the current owner, an authorized\n    ///  operator, or the approved address for this NFT. Throws if `_from` is\n    ///  not the current owner. Throws if `_to` is the zero address. Throws if\n    ///  `_tokenId` is not a valid NFT.\n    /// @param _from The current owner of the NFT\n    /// @param _to The new owner\n    /// @param _tokenId The NFT to transfer\n    function transferFrom(address _from, address _to, uint256 _tokenId) external{\n        require((msg.sender == _from) || \n                (msg.sender == kittyIndexToApproved[_tokenId]) || \n                (true == _operatorApprovals[msg.sender][_from]));\n        require(_from == kittyIdToOwner[_tokenId]);\n        require(_to != address(0));\n        require(_tokenId < kitties.length);\n\n        _transfer(_from, _to, _tokenId);\n    }\n\n    // **** Contract specific - Global functions\n    function breedCat(uint256 _dadId, uint256 _mumId) public returns(uint256){\n        \n        //Check if msg.sender owns this cats\n        require((kittyIdToOwner[_dadId] == msg.sender) && (kittyIdToOwner[_mumId] == msg.sender));\n        \n        //MixDna\n        uint256 newKittyGenes = _mixDna(kitties[_dadId].genes, kitties[_mumId].genes);\n        uint256 kittyGeneration = ((kitties[_dadId].generation + kitties[_mumId].generation) / 2) + 1;\n        //Create cat with this Dna\n        uint256 newKittyId = _createKitty(newKittyGenes, uint32(_mumId), uint32(_dadId), uint16(kittyGeneration), msg.sender);\n        return newKittyId;\n    }\n    \n    function getAllCatsFor(address _owner) external view returns (uint[] memory cats){ // seems to be better solution because this function is only view function so it is called for free (it does not matter the operation amount)\n        uint[] memory result = new uint[](ownershipCounter[_owner]);\n        uint counter = 0;\n        for (uint i = 0; i < kitties.length; i++) {\n            if (kittyIdToOwner[i] == _owner) {\n                result[counter] = i;\n                counter++;\n            }\n        }\n        return result;\n    }\n\n    /* If the returns is specified in such way there is no need to write return, only asignments are enough */\n    function getKitty(uint256 _tokenId) external view returns(\n        uint256 genes,\n        uint256 birthTime,\n        uint256 mumId,\n        uint256 dadId,\n        uint256 generation,\n        address owner) \n    {\n        Kitty storage kitty = kitties[_tokenId];\n        \n        genes = uint256(kitty.genes);\n        birthTime = uint256(kitty.birthTime);\n        mumId = uint256(kitty.mumId);\n        dadId = uint256(kitty.dadId);\n        generation = uint256(kitty.generation);\n        owner = kittyIdToOwner[_tokenId];\n    }\n\n    function createNewGen0(uint256 genes) public onlyOwner returns(uint256) {\n        require(genCntr < CREATION_LIMIT_FOR_GEN, \"Limit achieved\");\n        genCntr++;\n        uint256 kittyId = _createKitty(genes,0,0,0,msg.sender);\n        return kittyId;\n    }\n\n    // **** Contract specific - Private functions\n    function _createKitty(\n        uint256 _genes,\n        uint32 _mumId,\n        uint32 _dadId,\n        uint16 _generation,\n        address _owner\n    ) private returns (uint256 tokenId) {\n        Kitty memory _kitty = Kitty({\n            genes: _genes,\n            birthTime: uint64(block.timestamp),\n            mumId: _mumId,\n            dadId: _dadId,\n            generation: _generation\n        });\n\n        kitties.push(_kitty);\n        uint256 newKittenId =  kitties.length - 1;\n\n        _transfer(address(0), _owner, newKittenId);\n\n        emit Birth(_owner, newKittenId, _genes, _mumId, _dadId);\n\n        return newKittenId;\n    }\n\n    function _transfer(address _from, address _to, uint256 _tokenId) internal {\n        kittyIdToOwner[_tokenId] = _to;\n        if(_from != address(0)) { // We do not want to decrease amount for minting\n            ownershipCounter[_from]--;\n            delete kittyIndexToApproved[_tokenId]; // It is very important for approval functionality\n            // We do not want to have approved people (who can sell this token) when we are buying nfts\n        }\n        ownershipCounter[_to]++;\n\n        emit Transfer(_from, _to, _tokenId);\n    }\n\n    function _approve(address _approved, uint256 _tokenId) private{\n        kittyIndexToApproved[_tokenId] = _approved;     \n    }\n\n    function _safeTransfer(address _from, address _to, uint256 _tokenId, bytes memory _data) private {\n        _transfer(_from, _to, _tokenId);\n        _checkERC721Support(_from, _to, _tokenId, _data);\n        \n    }\n\n    function _checkERC721Support(address _from, address _to, uint256 _tokenId, bytes memory _data) private returns(bool){\n        if(false == _isContract(_to)){\n            return true;\n        }\n        else{\n            bytes4 reuturnData = IERC721Receiver(_to).onERC721Received(msg.sender, _from, _tokenId, _data);\n            return (ERC721CONF == reuturnData);\n        }\n    }\n\n    function _isContract(address _to) view private returns(bool){\n        uint32 size;\n        assembly{\n            size := extcodesize(_to)\n        }\n        return size > 0;\n    }\n\n    function _mixDna(uint256 _dadDna, uint256 _mumDna) private pure returns (uint256) {\n        return (_dadDna / 100000000) | (_mumDna % 100000000);\n    }\n    \n}",
  "sourcePath": "/home/anything/Blockchain/dapps/cryptokitties/kittyNfts/contracts/KittyContract.sol",
  "compiler": {
    "name": "solc",
    "version": "0.8.11+commit.d7f03943.Emscripten.clang"
  },
  "schemaVersion": "3.4.3",
  "updatedAt": "2022-01-24T06:28:31.403Z",
  "networkType": "ethereum",
  "devdoc": {
    "kind": "dev",
    "methods": {
      "approve(address,uint256)": {
        "details": "The zero address indicates there is no approved address.  Throws unless `msg.sender` is the current NFT owner, or an authorized  operator of the current owner.",
        "params": {
          "_approved": "The new approved NFT controller",
          "_tokenId": "The NFT to approve"
        }
      },
      "balanceOf(address)": {
        "details": "Returns the number of tokens in ``owner``'s account."
      },
      "getApproved(uint256)": {
        "details": "Throws if `_tokenId` is not a valid NFT.",
        "params": {
          "_tokenId": "The NFT to find the approved address for"
        },
        "returns": {
          "_0": "The approved address for this NFT, or the zero address if there is none"
        }
      },
      "isApprovedForAll(address,address)": {
        "params": {
          "_operator": "The address that acts on behalf of the owner",
          "_owner": "The address that owns the NFTs"
        },
        "returns": {
          "_0": "True if `_operator` is an approved operator for `_owner`, false otherwise"
        }
      },
      "ownerOf(uint256)": {
        "details": "Returns the owner of the `tokenId` token."
      },
      "safeTransferFrom(address,address,uint256)": {
        "details": "This works identically to the other function with an extra data parameter,  except this function just sets data to \"\".",
        "params": {
          "_from": "The current owner of the NFT",
          "_to": "The new owner",
          "_tokenId": "The NFT to transfer"
        }
      },
      "safeTransferFrom(address,address,uint256,bytes)": {
        "details": "Throws unless `msg.sender` is the current owner, an authorized  operator, or the approved address for this NFT. Throws if `_from` is  not the current owner. Throws if `_to` is the zero address. Throws if  `_tokenId` is not a valid NFT. When transfer is complete, this function  checks if `_to` is a smart contract (code size > 0). If so, it calls  `onERC721Received` on `_to` and throws if the return value is not  `bytes4(keccak256(\"onERC721Received(address,address,uint256,bytes)\"))`.",
        "params": {
          "_from": "The current owner of the NFT",
          "_to": "The new owner",
          "_tokenId": "The NFT to transfer",
          "data": "Additional data with no specified format, sent in call to `_to`"
        }
      },
      "setApprovalForAll(address,bool)": {
        "details": "Emits the ApprovalForAll event. The contract MUST allow  multiple operators per owner.",
        "params": {
          "_approved": "True if the operator is approved, false to revoke approval",
          "_operator": "Address to add to the set of authorized operators"
        }
      },
      "transferFrom(address,address,uint256)": {
        "details": "Throws unless `msg.sender` is the current owner, an authorized  operator, or the approved address for this NFT. Throws if `_from` is  not the current owner. Throws if `_to` is the zero address. Throws if  `_tokenId` is not a valid NFT.",
        "params": {
          "_from": "The current owner of the NFT",
          "_to": "The new owner",
          "_tokenId": "The NFT to transfer"
        }
      }
    },
    "version": 1
  },
  "userdoc": {
    "kind": "user",
    "methods": {
      "approve(address,uint256)": {
        "notice": "Change or reaffirm the approved address for an NFT"
      },
      "getApproved(uint256)": {
        "notice": "Get the approved address for a single NFT"
      },
      "isApprovedForAll(address,address)": {
        "notice": "Query if an address is an authorized operator for another address"
      },
      "safeTransferFrom(address,address,uint256)": {
        "notice": "Transfers the ownership of an NFT from one address to another address"
      },
      "safeTransferFrom(address,address,uint256,bytes)": {
        "notice": "Transfers the ownership of an NFT from one address to another address"
      },
      "setApprovalForAll(address,bool)": {
        "notice": "Enable or disable approval for a third party (\"operator\") to manage  all of `msg.sender`'s assets"
      },
      "transferFrom(address,address,uint256)": {
        "notice": "Transfer ownership of an NFT -- THE CALLER IS RESPONSIBLE  TO CONFIRM THAT `_to` IS CAPABLE OF RECEIVING NFTS OR ELSE  THEY MAY BE PERMANENTLY LOST"
      }
    },
    "version": 1
  }
}